:020000040800F2
:1000000048250020010100088B1E00081B13000872
:10001000871E0008250B0008DF27000800000000ED
:10002000000000000000000000000000892100081E
:10003000290B00080000000033200008752200088A
:100040001B0100081B0100081B0100081B01000820
:100050001B0100081B0100081B0100081B01000810
:100060001B0100081B0100081B0100081B01000800
:100070001B0100081B0100081B0100081B010008F0
:100080001B0100081B0100081B0100081B010008E0
:100090001B0100081B0100081B0100081B010008D0
:1000A0001B0100081B0100081B0100081B010008C0
:1000B0001B0100081B0100081B0100081B010008B0
:1000C0001B0100081B0100081B0100081B010008A0
:1000D0001B0100081B0100081B0100082D2500085A
:1000E0001B0100081B0100081B010008DFF80CD0F1
:1000F00000F098FC004800478D3A00084825002091
:100100000648804706480047FEE7FEE7FEE7FEE7B1
:10011000FEE7FEE7FEE7FEE7FEE7FEE779220008DE
:10012000ED0000080649074A0868504343F23902C7
:10013000104408604008704701490860704700009B
:10014000380000206D4EC641F0B480EA0102D40FA1
:100150004200B2EB410F02D20246084611464A0065
:1001600042D0C30DDDB2C1F3C752AD1A202D35DA2E
:10017000C1F3160141F4000204B15242C5F1200658
:1001800002FA06F12A411044B3EBD05F23D0C4B188
:10019000012DA0EBC35009DCF0BC4FF0004202EA95
:1001A000C352DBB200F5000000F069BB400000F173
:1001B000807000EBC350A0F1807040EAD17049001C
:1001C00009E0490841EAC071A0EBC35000F5000006
:1001D000400800EBC350F0BC00F048BB6142012274
:1001E00002EB4101001BF6E7F0BC704781F00041D3
:1001F000AAE780F00040A7E780EA010210B502F00C
:100200000043400022D04A001FD0010E01EB1261D2
:10021000C0F35600C2F3560240F4000042F400025C
:10022000A0FB022000047F39140400D0401C50EAD7
:10023000124001D44000491EC2B20C0604EBD0109B
:10024000401C4008802A02D003E0002010BD20F0AE
:100250000100002900DA0020184310BD30B480EA04
:10026000010202F0004530F0004221F0004013D0BE
:1002700090B1C30DD40DC2F31601C0F31600E41AF9
:1002800041F4000140F400027D34914201D3641C2A
:1002900000E04900002C02DA30BC002070474FF427
:1002A00000000023914201D3891A034340084FEA1A
:1002B0004101F7D151B1914202D14FF0004105E027
:1002C00002D24FF0010101E06FF0010103EBC450D5
:1002D000284430BC00F0CABA2DE9FE4F804681EABE
:1002E0000300C00F0C46009021F0004123F00045B0
:1002F000B8EB0200A94105D24046214690461C4673
:100300000B46024623F00040104347D0270DC7F3A9
:100310000A00C3F30A510290401A019040286BDA98
:10032000C3F3130040F4801B0098924620B10023D1
:10033000D2EB030A63EB0B0B01985946C0F1400264
:10034000504600F062FA06460D4650465946019A5C
:1003500000F07AFA10EB08006141002487EA11529C
:1003600084EAE7731A4340D0009A62B3019A012AE3
:100370004FEA075215DC001B61EB02014FF000420F
:1003800002EA0752CDE90042001C41F580113246D5
:100390002B4600F0E0FA03B0BDE8F08F404621465E
:1003A000F9E7001B61EB0201001C41F58013001806
:1003B0005B412018A2F5001747EB030140EAD57016
:1003C000B6196D4111E06D084FEA360645EAC07571
:1003D0004FEA0752001B61EB0201001C41F580113E
:1003E00049084FEA30000019514132462B4603B00C
:1003F000BDE8F04F00F0A0BA0098012240000023B1
:10040000D0EB020263EBE073009821464FEAE07400
:10041000B8EB000061EB0401E9E783F000435BE720
:1004200081F0004158E72DE9FE4F81EA030404F012
:10043000004421F0004100944FF0000B23F00043F2
:1004400050EA01045ED052EA03045BD0C3F30A54BD
:10045000C1F30A552C44A4F2F3340194A0FB0254D6
:10046000C1F3130141F48011C3F3130343F4801368
:1004700001FB024400FB034E840A970A44EA8154BC
:1004800047EA8357A4FB076802958D0A05FB078599
:100490004FEA932C04FB0C542705029D4FEA0658A3
:1004A00047EA1637B5EB08056EEB070C870E920E80
:1004B00047EA811742EA8312A7FB0201B6EB0B0160
:1004C00064EB00042B0D43EA0C335E1844EB1C5024
:1004D000DA465146E7FB0201C5F313044FEA0B333A
:1004E00043EA14534FEA0432019C43EA0603A4F1A1
:1004F0000C040294009CCDE900B400F02CFA03B087
:10050000BDE8F08F00200146F9E72DE9F04D81EAC2
:10051000030404F0004B21F0004514464FF0000A9C
:1005200023F0004150EA050220D054EA01021DD018
:10053000C5F30A570246C5F31303C1F31300C1F311
:100540000A5640F4801543F48013A7EB0608101BED
:10055000D64608F2FD3873EB050002D308F1010816
:1005600001E092185B41B8F1000F03DA0020014668
:10057000BDE8F08D00204FF48011064684460EE061
:10058000171B73EB050705D3121B63EB050306432B
:100590004CEA010C49084FEA300092185B4150EADE
:1005A0000107EDD152EA030012D082EA040083EA87
:1005B0000501084305D0101BAB4106D201220023E0
:1005C00006E000224FF0004302E06FF001025310FA
:1005D0001AEB06004CEB085110EB0A0041EB0B0143
:1005E000BDE8F04D00F0A8B9C10F80EAE070084402
:1005F000CA079623002100F042B996230022114633
:1006000000F03DB90EB5C10F80EAE0700844CA079A
:10061000002140F233438DE80E000A460B4600F0FD
:100620009AF903B000BD00F0004220F00040C10D77
:10063000C0F3160040F400007F2901DA0020704763
:10064000962903DCC1F19601C84001E09639884043
:10065000002AF4D04042704770B5C1F30A5201F04D
:1006600000450024C1F3130140F2FF3341F480112F
:100670009A4201DA002070BD40F233439A42A2F25E
:10068000334203DC524200F0CFF800E090402C43AC
:10069000F1D0404270BD00F0004230F000400AD07E
:1006A000C10D01F56071C0F3160042EA0151C208A4
:1006B00040071143704700200146704730B5041EC3
:1006C00071F1000404DB4FF00044404264EB01018F
:1006D000141E73F1000405DB1C464FF00043524228
:1006E00063EB04038B4208BF824230BD30B5041E69
:1006F00071F1000404DB4FF00044404264EB01015F
:10070000141E73F1000405DB1C464FF000435242F7
:1007100063EB0403994208BF904230BD01F00043EF
:1007200030B421F0004150EA010206D00A0DA2F5D2
:100730006072C1F31301002A02DC30BC0020704754
:10074000440F44EAC104C100E01830BC00EBC250C1
:1007500000F08CB8002801DBC0F10040002901DB6B
:10076000C1F1004181427047002801DBC0F1004027
:10077000002901DBC1F100418842704730B50B46CA
:10078000014600202022012409E021FA02F59D42C1
:1007900005D303FA02F5491B04FA02F52844151E95
:1007A000A2F10102F1DC30BD2DE9F05F0546002029
:1007B00092469B4688460646814640241BE02846D2
:1007C00041464746224600F02FF853465A46C01A83
:1007D000914110D311461846224600F016F82D1A02
:1007E00067EB01084F4622460120002100F00DF87A
:1007F00017EB00094E41201EA4F10104DFDC48463E
:1008000031462A464346BDE8F09F202A04DB203AC1
:1008100000FA02F1002070479140C2F1200320FA53
:1008200003F3194390407047202A04DB203A21FA51
:1008300002F00021704721FA02F3D040C2F12002F9
:100840009140084319467047202A06DBCB17203A0F
:1008500041FA02F043EAE07306E041FA02F3D040C5
:10086000C2F1200291400843194670470029A8BFF1
:100870007047401C490008BF20F00100704710B4C9
:10088000B0FA80FC00FA0CF050EA010404BF10BC7E
:10089000704749B1CCF1200421FA04F411FA0CF1AB
:1008A00018BF012121430843A3EB0C01CB1D4FEAE4
:1008B00000614FEA102042BF002010BC704700EBDF
:1008C000C35010440029A4BF10BC7047401C49000D
:1008D00008BF20F0010010BC7047F0B4002802DC13
:1008E000F0BC00207047C0F3C751C0F3160040F4BD
:1008F0000000CA0701D14000491E3F2202EB6105FA
:10090000002211464FF4000626FA01F31344D418CE
:10091000844201D8001B1A464000491C1729F3DD08
:100920005100814202D24FF0FF3100E0002102EB82
:10093000C550F0BCFFF79ABF10B5141E73F1000448
:1009400008DA401C41F1000192185B411A4301D1C1
:1009500020F0010010BD2DE9F04D92469B4611B1EB
:10096000B1FA81F202E0B0FA80F220329046FFF74D
:100970004CFF04460F4640EA0A0041EA0B01534689
:100980005A46084313D0114653EA010019D0C8F162
:1009900040025046FFF748FF05460E46504659466E
:1009A0004246FFF732FF084305D0012004E020460D
:1009B0003946BDE8F08D0020054346EAE0762C4339
:1009C00037430A986305E40AA0EB08000022FD0AF9
:1009D00044EA47540A3002D500200146E9E7010500
:1009E00010196941DDE9084500196941BDE8F04D7C
:1009F000A2E7C1F30A52C1F3130140F2FF3341F4FD
:100A000080119A4202DA00200146704740F23343D7
:100A10009A42A2F2334202DC5242FFF705BFFFF7CF
:100A2000F4BE0000064C074D06E0E06840F001030C
:100A300094E8070098471034AC42F6D3FFF75AFB0E
:100A400098600008B860000800B585B00121082052
:100A500001F000FB0121880401F0ECFA04208DF87C
:100A600013008002ADF8100004A91E4800F04AF9F6
:100A70004FF48060ADF8100018208DF813000320AB
:100A80008DF8120004A9174800F03CF94FF40060FB
:100A9000ADF8100004208DF8130004A9114800F0EF
:100AA00031F94FF4E13000900020ADF80400ADF8CA
:100AB0000600ADF80800ADF80C000C20ADF80A00F7
:100AC0006946094801F016FE01F001FA012240F2E0
:100AD0002551054801F0E9FD0121034801F046FDDB
:100AE00005B000BD000C01400048004010B50446B0
:100AF0002146024801F084FE10BD0000004800407D
:100B000010B54FF48051064800F087F9012802D152
:100B100003F00AF902E0002003F006F910BD00001E
:100B2000000C014000BFFEE770470FB47CB50446DF
:100B30000A990898FFF760FB054609990798FFF79F
:100B40005BFB06462946FFF751FB0090DDE90801F3
:100B5000FFF752FB05460A990798FFF74DFB06463B
:100B60002946FFF7F1FA0190DDE90001C4E900012F
:100B70007CBC5DF814FB00002DE9F04F91B00446F9
:100B800000264FF480700E9040F2FF100D9000256B
:100B90001CE0B5420FDA04EBC60103C9CDE906013A
:100BA00004EBC60004EBC50206CA06C004EBC50090
:100BB000DDE9061206C00E9F04E0F61B384607EB7F
:100BC000D0714F10B742F8DD3E446D1C0D98854240
:100BD000DFDB4FF400700F9001200C9002E00C98C6
:100BE000401C0C900F9800EBD07149100F91012917
:100BF000F5D188467BE0A8F10100022101FA00F955
:100C0000484609EBD0714FEA610A4FF07E500A90D6
:100C100000200B905046FFF7F5FC02460B46CDE94D
:100C2000000136483649FFF770FCCDE9020101F0BA
:100C3000FDFDCDE90401FFF771FD08905046FFF777
:100C4000E1FC02460B46CDE900012C482C49FFF798
:100C50005CFCCDE9020101F0FDFD81F00041CDE930
:100C60000401FFF75BFD099000263AE035462CE0D1
:100C700005EB0A0B0B9804EBCB0C00900A9B06A823
:100C8000DCE90012FFF751FF54F835000699FFF731
:100C9000ADFA44F83B0004EBC50207995068FFF732
:100CA000A5FA04EBCB01486054F835000699FFF72C
:100CB0004BFA44F8350004EBC50207995068FFF77A
:100CC00043FA04EBC50148604D44B5F5007FCFDB26
:100CD000099800900AA8089BDDE90A12FFF725FF92
:100CE000761CAAF10100B042C0DA08F101080C98A4
:100CF000804580DD11B0BDE8F08F0000182D445410
:100D0000FB2109402DE9F041024600250026002084
:100D100000230024002791F803C00CF00F0591F880
:100D200003C00CF0100CBCF1000F03D091F802C00E
:100D30004CEA050591F800C0BCF1000F31D01468F1
:100D400000202BE04FF0010C0CFA00F3B1F800C0CA
:100D50000CEA03069E4220D183004FF00F0C0CFAE0
:100D600003F7BC4305FA03FC4CEA040491F803C002
:100D7000BCF1280F06D14FF0010C0CFA00FCC2F8B0
:100D800014C00AE091F803C0BCF1480F05D14FF040
:100D9000010C0CFA00FCC2F810C0401C0828D1D38A
:100DA0001460B1F800C0BCF1FF0F34DD54680020BE
:100DB0002EE000F1080C4FF0010808FA0CF3B1F82E
:100DC00000C00CEA03069E4221D183004FF00F0CB5
:100DD0000CFA03F7BC4305FA03FC4CEA040491F84F
:100DE00003C0BCF1280F05D100F1080C08FA0CF87B
:100DF000C2F8148091F803C0BCF1480F07D100F18C
:100E0000080C4FF0010808FA0CF8C2F81080401CDA
:100E10000828CED35460BDE8F081024600209368D4
:100E20000B400BB1012000E000207047416170478A
:100E3000016170472DE9F84F0746884693469A4668
:100E4000DDF828900097B3E099F8000080283DDA9B
:100E500099F800600D2E05D1009F08F110001FFACF
:100E600080F830E0202E03DDA6F1200086B200E0FD
:100E70000026002422E000251CE004EB0610504967
:100E8000085C80212941084040B108EB040291B27E
:100E90007A1990B25A4600F0ECF909E0D34507D030
:100EA00008EB040291B27A1990B2524600F0E1F9CF
:100EB000681CC5B2082DE0DB601CC4B2102CDADB64
:100EC00007F1080087B209F1010971E0002668E026
:100ED00006EB06103B4911F8100099F80010884203
:100EE0005DD106EB0610374901EB4000407899F8D8
:100EF0000110884253D100244FE0002520E006EB8A
:100F00000610304901EB4000801C10F814108020BE
:100F10002841014041B108EB040291B27A1990B224
:100F20005A4600F0A6F909E0D34507D008EB0402C1
:100F300091B27A1990B2524600F09BF9681CC5B282
:100F4000082DDCDB002524E006EB06101D4901EB33
:100F50004000801C012101EB4401405C80212941BB
:100F6000084048B108EB040291B27A19083290B2F5
:100F70005A4600F07EF90AE0D34508D008EB040297
:100F800091B27A19083290B2524600F072F9681C98
:100F9000C5B2082DD8DB601CC4B2102CADDB701CB0
:100FA00086B2052E94DB09F1020907F1100087B221
:100FB00099F8000000287FF447AFBDE8F88F0000E3
:100FC000AC3E00081E4C00082DE9F05F064688463E
:100FD00093469A46DDF82890E2E099F800008028D0
:100FE00035DA99F80070202F03DDA7F1200087B2D1
:100FF00000E00027002522E000241CE005EB07109C
:101000006B49095C80202041014041B108EB050299
:1010100091B2321990B25A4600F02BF909E0D3454B
:1010200007D008EB050291B2321990B2524600F097
:1010300020F9601CC4B2082CE0DB681CC5B2102D7E
:10104000DADB09F1010906F1080086B2A8E0002701
:101050009EE007EB870000EB4710564911F810009F
:1010600099F8001088427CD107EB870000EB47100D
:10107000504901EB4000407899F801108842F2D1C4
:10108000002580E0002423E007EB870000EB4710F9
:10109000484901EB4000801C05EB4501405C802184
:1010A0002141084040B108EB050291B2321990B2DB
:1010B0005A4600F0DEF809E0D34507D008EB0502F8
:1010C00091B2321990B2524600F0D3F8601CC4B20B
:1010D000082CD9DB002426E007EB870000EB471043
:1010E000344901EB4000801C05EB4501491C405C84
:1010F00080212141084048B108EB050291B2321924
:10110000083290B25A4600F0B4F80AE0D34508D04D
:1011100008EB050291B23219083290B2524600F043
:10112000A8F8601CC4B2082CD6DB002427E007EB2B
:10113000870000EB47101F4901EB4000801C05EBC6
:101140004501891C405C80212141084050B108EBD9
:10115000050291B23219103290B25A4600F089F865
:101160000BE013E0D34508D008EB050291B2321929
:10117000103290B2524600F07CF8601CC4B2082CC9
:10118000D5DB681CC5B2182DFFF67CAF781C87B282
:10119000072FFFF65EAF09F1020906F1180086B2CB
:1011A00099F8000000287FF418AFBDE8F09F000018
:1011B000AC3E0008EA4C00082DE9FF4F83B08046A2
:1011C00089464946404600F0D4FA0598A0EB080548
:1011D0000698A0EB0906002D02DB0120029003E037
:1011E0004FF0FF3002906D42002E02DB0120019093
:1011F00003E04FF0FF30019076424FEA450A4FEA94
:10120000460BB54219DDABEB0504002712E0494659
:101210004046109A00F02DF8002C05DBA4EB0A04E0
:10122000019848441FFA80F95C44029840441FFA30
:1012300080F87F1CAF42EADD18E0AAEB0604002725
:1012400012E049464046109A00F013F8002C05DBE6
:10125000A4EB0B04029840441FFA80F85444019810
:1012600048441FFA80F97F1CB742EADD07B0BDE8A9
:10127000F08F70B504460D461646681C83B2601C9C
:1012800082B22946204600F049FA304600F0A6F81E
:1012900070BD2DE9F84305460C4616461F46DDF89D
:1012A00020804FF478400090A81982B2234621464E
:1012B0002846FFF781FF4FF4784004F1010CBC444D
:1012C0001FFA8CF305EB060CACF1010C1FFA8CF243
:1012D00004F1010C1FFA8CF105EB060CACF1010CCA
:1012E00000901FFA8CF0FFF767FF4FF478400090F2
:1012F000E01983B2A81982B2E01981B22846FFF73B
:101300005BFF4FF478400090E01983B22A462146F3
:101310002846FFF751FFBDE8F88300BFFEE7000055
:1013200010B504469CB14FF400411548FFF780FD0D
:1013300000F099FA40211348FFF77AFD00F093FA84
:1013400040211048FFF772FD00F08DFA17E04FF4CE
:1013500000410B48FFF76AFD00F085FA402109487B
:10136000FFF766FD00F07FFA40210648FFF75EFDBB
:1013700000F079FA4FF400410148FFF759FD10BD24
:10138000000C01400010014008B50121082000F0C8
:1013900061FE4FF47870ADF8000003208DF8020074
:1013A00010208DF8030069460A48FFF7ABFC0121C5
:1013B000202000F04FFE0420ADF8000003208DF83F
:1013C000020010208DF8030069460348FFF79AFCDD
:1013D00008BD0000000C01400014014010B5044697
:1013E0002020084908604020091F0860201200F0F2
:1013F000ABFEE0B200F0A8FE20200249091F086001
:1014000010BD0000140C014008B50121182000F0A7
:1014100021FE0420ADF8000010208DF80300032009
:101420008DF8020069460948FFF76CFC0820ADF80A
:10143000000069460648FFF765FC04210348FFF7F2
:10144000F7FC08210248FFF7F3FC08BD001001403B
:10145000000C014070B506467F231A46002108465D
:1014600000F05CF92C2000F0A1F9002408E0002530
:1014700003E03046FFF7B2FF6D1C802DF9D3641CEA
:10148000802CF4D370BD10B5FFF77EFF00F00CF98F
:10149000112000F08BF9782002F0A8FAB12000F0BA
:1014A00085F9012000F070F92C2000F06DF92D2055
:1014B00000F06AF9B22000F079F9012000F064F937
:1014C0002C2000F061F92D2000F05EF9B32000F02F
:1014D0006DF9012000F058F92C2000F055F92D206D
:1014E00000F052F9012000F04FF92C2000F04CF9E7
:1014F0002D2000F049F9B42000F058F9072000F041
:1015000043F9C02000F052F9A22000F03DF902207A
:1015100000F03AF9842000F037F9C12000F046F9D4
:10152000C52000F031F9C22000F040F90A2000F097
:101530002BF9002000F028F9C32000F037F98A20A9
:1015400000F022F92A2000F01FF9C42000F02EF943
:101550008A2000F019F9EE2000F016F9C52000F0FD
:1015600025F90E2000F010F9362000F01FF9C820F0
:1015700000F00AF9E02000F019F90F2000F004F95A
:101580001A2000F001F90F2000F0FEF8182000F0FA
:10159000FBF82F2000F0F8F8282000F0F5F82020C4
:1015A00000F0F2F8222000F0EFF81F2000F0ECF835
:1015B0001B2000F0E9F8232000F0E6F8372000F0C7
:1015C000E3F8002000F0E0F8072000F0DDF802204A
:1015D00000F0DAF8102000F0D7F8E12000F0E6F88B
:1015E0000F2000F0D1F81B2000F0CEF80F2000F003
:1015F000CBF8172000F0C8F8332000F0C5F82C20F5
:1016000000F0C2F8292000F0BFF82E2000F0BCF84E
:10161000302000F0B9F8302000F0B6F8392000F0A2
:10162000B3F83F2000F0B0F8002000F0ADF807203C
:1016300000F0AAF8032000F0A7F8102000F0A4F8AA
:101640002A2000F0B3F8002000F09EF8002000F0FF
:101650009BF8002000F098F87F2000F095F82B20F0
:1016600000F0A4F8002000F08FF8002000F08CF8C3
:10167000002000F089F89F2000F086F8F02000F0AC
:1016800095F8012000F080F8F62000F08FF8002097
:1016900000F07AF83A2000F089F8052000F074F89C
:1016A000292000F083F810BD10B58020064908609D
:1016B000642002F09BF980200349091F0860322052
:1016C00002F094F910BD0000140C01402DE9F04720
:1016D00006460F4614461D46DDF820A07819401E28
:1016E00083B23019401E82B23946304600F016F8F7
:1016F0002C2000F05BF84FF000080BE04FF00009E1
:1017000004E05046FFF76AFE09F10109A945F8D344
:1017100008F10108A045F1D3BDE8F087F0B5044613
:101720000D4616461F462A2000F040F8002000F023
:101730002BF8A11CC8B200F027F8002000F024F814
:10174000B11CC8B200F020F82B2000F02FF80020C8
:1017500000F01AF8E91CC8B200F016F8002000F0FA
:1017600013F8F91CC8B200F00FF82C2000F01EF896
:10177000F0BD30B504460D462B462246294620468C
:10178000FFF7CCFF30BD000010B50446202006490D
:1017900008604020091F0860204600F0D5FC20208A
:1017A0000149091F086010BD140C014010B5044622
:1017B00020200649086040200860204600F0C4FC54
:1017C00020200249091F086010BD0000140C0140D0
:1017D00010B5D0220221AE2000F092F900220321A0
:1017E000AE2000F08DF900220421AE2000F088F92F
:1017F00000220521AE2000F083F900220621AE2050
:1018000000F07EF90F220821AE2000F079F90322C2
:101810000921AE2000F074F92F220A21AE2000F039
:101820006FF932220C21AE2000F06AF932220D212C
:10183000AE2000F065F97F221021AE2000F060F9A3
:1018400005223021AE2000F05BF97F221021AE206E
:1018500000F056F90021AE2000F07AF80121AE2008
:1018600000F076F810BD062000BF0100A0F10102D3
:10187000D0B2FAD17047000008B50121182000F05D
:10188000E9FB14208DF803004020ADF80000032090
:101890008DF8020069460B48FFF734FA4FF4004018
:1018A000ADF8000069460848FFF72CFA04208DF8CF
:1018B00003008020ADF8000069460248FFF722FAD5
:1018C00008BD000000100140000C01402DE9F0416E
:1018D0000446884616461F4600F0DCF8E0B200F0E9
:1018E0008BF81A480078012802D10020BDE8F08169
:1018F00008F0FF0000F080F814480078012801D1BA
:101900000020F3E700F0C6F8611CC8B200F074F8DC
:101910000E480078012801D10020E7E700250FE0FC
:1019200000F046F806F8010B781EA84203D101200A
:10193000FFF7F6FC02E00020FFF7F2FC681C85B21E
:10194000BD42EDDB00F0C4F80120CFE730000020FD
:1019500070B504460D4600F09DF8E0B200F04CF87A
:1019600012480078012801D1002070BD284600F0FF
:1019700043F80E480078012801D10020F5E700F077
:1019800089F8611CC8B200F037F8084800780128CF
:1019900001D10020E9E700F00BF806460120FFF72F
:1019A000BFFC00F095F83046DFE700003000002073
:1019B00070B50024002517E06006040E40210C4895
:1019C000FFF736FAFFF74FFF4FF400410948FFF7E2
:1019D00024FA08B1601CC4B240210548FFF726FA7A
:1019E000FFF741FF681CC5B2082DE5DB204670BD3E
:1019F00000100140000C014070B5044600251FE0B6
:101A000004F0800028B14FF400411F48FFF710FA9E
:101A100004E04FF400411C48FFF708FAFFF723FFEA
:101A200040211A48FFF704FAFFF71DFF402117482D
:101A3000FFF7FCF9FFF717FF6006040E681CC5B23C
:101A4000082DDDDB4FF400410F48FFF7F1F9FFF7F8
:101A50000AFF40210D48FFF7EBF9FFF704FF4FF4B1
:101A600000410948FFF7D9F918B101200849087069
:101A700002E000200649087040210448FFF7D6F92B
:101A8000FFF7F1FE70BD0000000C014000100140A6
:101A90003000002010B540210B48FFF7C9F94FF482
:101AA00000410A48FFF7C4F9FFF7DDFE4FF400419B
:101AB0000648FFF7BBF9FFF7D6FE40210248FFF7C3
:101AC000B5F9FFF7D0FE10BD00100140000C014039
:101AD00010B54FF400410848FFF7A8F94021074826
:101AE000FFF7A6F9FFF7BFFE4FF400410248FFF7EA
:101AF0009FF9FFF7B8FE10BD000C01400010014037
:101B000070B504460D461646FFF7C4FFE0B2FFF776
:101B100073FF0E480078012801D1002070BD2846CF
:101B2000FFF76AFF09480078012801D10020F5E796
:101B30003046FFF761FF05480078012801D10020F9
:101B4000ECE7FFF7C5FF0120E8E7000030000020C8
:101B500010B54FF480600A49486101F08FFF4FF4DF
:101B600000600749086101F089FF4FF400600449F3
:101B7000486101F083FF4FF480600149086110BDA6
:101B80000010014008B50121102000F063FA4FF465
:101B90004060ADF8000003208DF8020014208DF89D
:101BA000030069460248FFF7ADF800F031F908BDBF
:101BB000001001402DE9F0470621002000F036F822
:101BC0000446FEF71AFD82465046FEF764FD804645
:101BD000084A094BFEF727FC06464FF06632074BD2
:101BE000FEF71BFC0446FEF799FD82465046BDE811
:101BF000F08700007B14AE47E17A943F6612714093
:101C000010B54FF480600849086101F037FF4FF4C8
:101C100000600549086101F031FF4FF4006002499E
:101C2000486101F02BFF10BD001001402DE9FC5F61
:101C300004460D464FF0000B00BF00BF00F0E8F86F
:101C4000ABF1010000F0FF0BBBF1000F00D14CE045
:101C500000F0C6F8002141EA4401C8B200F094F84F
:101C600000F0E6F800B1E9E7284600F08DF800F052
:101C7000DFF800B1E2E700F0B3F8012101EB440125
:101C8000C8B200F081F800F0D3F800B1D6E700F058
:101C900033F80646FFF75CFF00F02EF80746FFF723
:101CA00057FF00F029F88246FFF7AAFF00F0B0F8CE
:101CB00001F0E4FE002040EA4400C0B28DF80500C7
:101CC0008DF80450012000EB4400C0B28DF80300F1
:101CD0008DF802608DF8017000208DF800006846D4
:101CE00000F04AF98046D045A7D100BF46EA07294F
:101CF0004846BDE8FC9F000070B50024002516E0B2
:101D00006006040E4FF400600B49086101F0B6FE56
:101D10000948806800F4806008B1601CC4B24FF4C8
:101D200000600549486101F0A9FE681CC5B2082D94
:101D3000E6DB204670BD0000001001402DE9F047B1
:101D400007210020FFF772FF0446FEF756FC82468B
:101D50005046FEF7A0FC8046084A094BFEF763FB9D
:101D600006464FF06632074BFEF757FB0446FEF778
:101D7000D5FC82465046BDE8F08700007B14AE4794
:101D8000E17A943F6612714070B50446002521E067
:101D900004F0800020B14FF480601049086103E036
:101DA0004FF480600D49486101F068FE4FF4006017
:101DB0000A49086101F062FE4FF40060074948617A
:101DC000072D01D1401008616006040E01F056FE97
:101DD000681CC5B2082DDBDB70BD0000001001409F
:101DE00010B54FF48060094908614000086101F0B6
:101DF00045FE4FF480600549486101F03FFE4FF415
:101E000000600249486101F039FE10BD0010014038
:101E100010B54FF48060054948614000086101F049
:101E20002DFE4FF480600149086110BD0010014093
:101E300010B54FF480600D49086101F01FFE4FF4AA
:101E400000600A49086101F019FE0848806800F442
:101E5000806008B1012400E000244FF400600349D1
:101E6000486101F00BFE204610BD0000001001404B
:101E700010B540220921AE20FFF742FE08B1012033
:101E800010BD0020FCE700BFFEE7704708B54FF427
:101E9000A06000F067F826208DF8000001208DF882
:101EA00001008DF802008DF80300684600F022F86A
:101EB00025208DF8000000208DF8010001208DF80C
:101EC00002008DF80300684600F014F808BD08B55C
:101ED0004FF4A06000F046F827208DF800000120A4
:101EE0008DF801008DF802008DF80300684600F0BF
:101EF00001F808BD70B5002100230F22C47804B397
:101F0000154C246804F4E064C4F5E064210AC1F1CE
:101F10000403CA40447804FA03F18478144021434E
:101F200009010E4C0678A155047804F01F05012420
:101F3000AC4005786D11AD0005F1E025C5F8004114
:101F400009E0047804F01F050124AC40044D067834
:101F5000761145F8264070BD0CED00E000E400E08D
:101F600080E100E002490143024A1160704700002D
:101F70000000FA050CED00E0FCB502462F2300BF7F
:101F800000208DF805008DF804008DF803008DF811
:101F9000020001208DF8010007208DF800002F239A
:101FA00000250521002409E0581EC3B2072C02DADF
:101FB000601CC4B202E00024481EC1B2505C8027FD
:101FC0002741384008B90029EEDCA3F10800C5B26A
:101FD0001EE0052118E0481E1DF8000000F08000FA
:101FE00018B1002901DD012600E000261DF80100DE
:101FF0004006000E0DF801001DF801003044C0B28B
:102000000DF80100481EC1B2FF29E4DB681EC5B20D
:10201000002DDED1002106E0505C1DF801707840F3
:102020005054481CC1B20529F6DD082BA8DC1078F5
:10203000FCBD704729B1064AD2690243044BDA61FC
:1020400004E0034AD2698243014BDA617047000021
:102050000010024029B1064A92690243044B9A617A
:1020600004E0034A92698243014B9A617047000081
:102070000010024030B500210022002400232D4D25
:102080006D6805F00C0121B1042905D0082923D180
:1020900005E0294D056022E0274D05601FE0254D34
:1020A0006D6805F47012234D6D6805F480340225C7
:1020B00005EB92421CB9214D554305600BE01D4DC7
:1020C0006D6805F400351DB11C4D5543056002E0F7
:1020D000194D5543056002E0174D056000BF00BF74
:1020E000144D6D6805F0F0010909154D6B5C05682C
:1020F000DD4045600F4D6D6805F4E061090A104D43
:102100006B5C4568DD4085600A4D6D6805F4605183
:10211000C90A0B4D6B5C4568DD40C560054D6D68B7
:1021200005F44041890B074D6B5CC568B5FBF3F5C1
:10213000056130BD0010024000127A0000093D0028
:1021400000000020100000200021082117E000F00E
:10215000800222B14FF480720A4B1A6004E04FF4FF
:102160008072084B1B1D1A604FF40072054B1B1D3B
:102170001A601B1F1A604206100E4A1ED1B20029B7
:10218000E5DC7047100C0140704710B500F002F814
:1021900010BD00000CB5002001900090334800688D
:1021A00040F480303149086000BF3048006800F4D6
:1021B000003000900198401C0190009818B90198D7
:1021C000B0F5A06FF1D12948006800F4003010B1DB
:1021D0000120009001E0002000900098012843D1E8
:1021E0002348006840F01000214908600846006854
:1021F00020F0030008600846006840F00200086014
:102200001A484068194948600846406848600846CE
:10221000406840F4806048600846406820F47C10C4
:1022200048600846406840F4E81048600846006886
:1022300040F08070086000BF0C48006800F000703B
:102240000028F9D00948406820F003000749486099
:102250000846406840F00200486000BF03484068FC
:1022600000F00C000828F9D10CBD0000001002405D
:10227000002002407047000010B51348006840F08D
:1022800001001149086008464068104908400E499D
:102290004860084600680E4908400B490860084637
:1022A000006820F4802008600846406820F4FE00A2
:1022B00048604FF41F008860FFF767FF4FF0006031
:1022C0000449086010BD0000001002400000FFF843
:1022D000FFFFF6FE08ED00E02DE9F04F8BB0002087
:1022E000079081467A480690FFF764FC0990FFF753
:1022F00025FD089006990998FEF72CFA2BD8069927
:102300000998FDF773FF0590FEF7C5F98246714AFB
:10231000714BFEF788F80546704A714BFDF7DCFFFC
:102320000746FEF7FBF9044606990998FDF75EFF9C
:102330000590FEF7B0F982466A4A6B4BFEF773F8D8
:102340000746664A5242694BFDF7C6FF0546FEF74F
:10235000E5F981462AE006990998FDF747FF0590BF
:10236000FEF799F90746624A624BFEF75CF80546AC
:102370005A4A5B4BFDF7B0FF8246FEF7CFF90446A1
:1023800006990998FDF732FF0590FEF784F9054696
:10239000594A5A4BFEF747F88246504A5242534B2D
:1023A000FDF79AFF0746FEF7B9F9814620460899DE
:1023B000FEF7D0F92DD849460898FEF7CBF928D872
:1023C00021460898FDF712FF0546FEF764F982469C
:1023D0008B4621464846FDF709FF0190FEF75BF961
:1023E00005462A460B4600204549FEF78EF8524620
:1023F0005B46CDE90201FEF716F84FF06632414B1D
:10240000CDE90401FDF768FF0746FEF787F907905D
:1024100059E049460898FEF7A7F928D24946089896
:10242000FDF7E4FE0546FEF736F9074688460998AB
:10243000FEF731F9344A354BCDE90001FDF7F3FFE2
:102440000546334A334BFDF747FF82463A4643463B
:10245000FDF7E9FF4FF066322F4BCDE90201FDF7A2
:102460003BFFCDE90401FEF759F907902BE0214627
:102470000898FEF76FF926D221460898FDF7B6FEB8
:102480000546FEF708F9CDE902010998FEF703F9C0
:102490000746224A224BFDF7C6FF0546214A224B3A
:1024A000FDF71AFFCDE90001DDE90223FDF7BBFFCF
:1024B00082464FF06632134BFDF70EFFCDE9040163
:1024C000FEF72CF9079007980BB0BDE8F08F0000DD
:1024D0000000C841022B8716D9CEC73F14AE47E192
:1024E0007A5440408B6CE7FBA9F1C23F856B4140B9
:1024F0006ABC74931804B63F9A9999999999B93F0F
:102500000000E03F66264240B5FF01D6AA5D633F6A
:102510003E5A9C31CC89EA3F666642407B832F4C11
:10252000A60A963FE27492AD2EA7E13F10B540F2A5
:1025300025510B4800F08FF880B1094800F046F9AA
:10254000C4B2612C03D104200649086102E00420D2
:10255000044948612146044800F03DF910BD0000DF
:1025600000480040001001400038014021B182893C
:1025700042F40052828104E082894DF6FF731A40D2
:102580008281704700B585B001210420FFF762FD0C
:1025900001218803FFF75EFD01214804FFF74AFD92
:1025A0004FF40170ADF8100018208DF813000320CF
:1025B0008DF8120004A91E48FEF7A4FB4FF48160B9
:1025C000ADF8100004208DF8130004A91848FEF798
:1025D00099FB4FF4E13000900020ADF80400ADF815
:1025E0000600ADF80800ADF80C000C20ADF80A00AC
:1025F0006946104800F07EF869460F4800F07AF806
:10260000FFF744FC012240F225510B4800F04DF841
:10261000012240F22551074800F047F80121054802
:10262000FFF7A4FF01210448FFF7A0FF05B000BD9C
:1026300000080140003801400044004002460020EC
:10264000B1F5007F00D100BF13880B400BB1012012
:1026500000E00020704770B50246002400230025EA
:10266000002040F66A16B14200D100BFC1F3421506
:1026700001F01F03012606FA03F3012D02D196890A
:10268000334006E0022D02D1168A334001E0968ADB
:1026900033400C12012606FA04F41688344013B1B4
:1026A0000CB1012000E0002070BDF0B5034600240D
:1026B00000260025002040F66A17B94200D100BF6D
:1026C0001846C1F3421401F01F06012707FA06F568
:1026D000012C01D10C3004E0022C01D1103000E0BB
:1026E00014301AB107682F43076002E00768AF4350
:1026F0000760F0BD2DE9F04786B005460E46002480
:10270000A24600BFA1460027B08900B100BF2F46F6
:102710002C8A4CF6FF700440F08804432C82AC896C
:102720004EF6F3100440B08831890843718908439C
:102730000443AC81AC8A4FF6FF400440B0890443A7
:10274000AC8201A8FFF796FC1F48874202D1DDF852
:1027500010A001E0DDF80CA0A88900F4004040B111
:102760000AEBCA0000EB0A1031684900B0FBF1F82F
:1027700007E00AEBCA0000EB0A1031688900B0FBE1
:10278000F1F86420B8FBF0F004012009642101FB9A
:102790001089A88900F4004040B1322000EBC90044
:1027A000B0FBF1F000F00700044308E0322000EB3A
:1027B00009106421B0FBF1F000F00F0004432C81FC
:1027C00006B0BDE8F0870000003801400146888867
:1027D000C0F308007047C1F308028280704700BF51
:1027E000FEE770B504460D4629462046FFF7F3FF85
:1027F00000BF80212046FFF721FF0028F9D070BDDF
:1028000070B506460C46002500BF615D3046FFF7F7
:10281000E8FF6D1C605D0028F7D100BF4021304605
:10282000FFF70CFF0028F9D070BD00002DE9F04142
:1028300004460D46054A064B20462946FDF74CFD49
:10284000064600F007F8BDE8F0810000182D44545A
:10285000FB21F93F2DE9F04F93B004460D464FF0B0
:10286000000B0022134620462946FDF727FF03D21E
:102870004FF0010B85F00045704A714B2046294608
:1028800001F0DEF904460D466C4A6E4B204629469F
:10289000FDF72CFF0ED2BBF1000F01D1012000E0AB
:1028A00000208346654A674B20462946FDF7B5FD63
:1028B00004460D46614A644B20462946FDF716FF43
:1028C00007D25E4A5F4B20462946FDF7A9FD044624
:1028D0000D465E4A5E4B20462946FDF716FECDE9C1
:1028E0000E01FDF7B9FE82465046FDF78BFE574AB2
:1028F000574BCDE90C01FDF796FD22462B46CDE95D
:102900000E01FDF78DFD06460F46504A514B3046ED
:102910003946FDF7EBFE09D20AF1010A4B4A4C4B4E
:1029200030463946FDF779FD06460F464A4800EB2A
:10293000CA00D0E90089CAF16400474901EBC00030
:1029400003C8CDE9100132463B4630463946FDF713
:102950006AFD32463B46CDE90401FDF764FD32468F
:102960003B46CDE90601FDF75EFD42464B46CDE90B
:102970000801FDF758FD0022384BCDE90A01FDF7AB
:10298000C4FD32463B46CDE90E0130463946FDF7DF
:102990004AFD32463B46CDE90201FDF744FDCDE953
:1029A0000401DDE91023FDF73EFD00222C4BCDE9AB
:1029B0000601FDF7AAFD32463B46CDE90A01304645
:1029C0003946FDF730FD42464B46CDE90001FDF7A3
:1029D0002AFD00224FF08043CDE90201FDF795FD6D
:1029E000CDE9060130463946DDE91023FDF71BFD30
:1029F00042464B46CDE90201FDF76EFCCDE90401EC
:102A0000DDE90623FDF709FDCDE90801DDE90A232B
:102A1000FDF703FDCDE90C01DDE90E23FDF75CFCBC
:102A200004460D46BBF1000F05D0204685F000415D
:102A300013B0BDE8F08F20462946F9E7182D44541D
:102A4000FB211940FB210940FB21F93F1A2717926E
:102A5000BF15903FBF15803F705D000800003840F3
:102A6000000018400FB4054B10B503A9044A0298A2
:102A700000F0E4F810BC5DF814FB0000593A0008BF
:102A80003C0000200FB4084B10B504A902AA03981B
:102A900000F0D4F8044602A9002000F066FC2046AD
:102AA00010BC5DF814FB00006B33000802E008C89E
:102AB000121F08C1002AFAD170477047002001E0B8
:102AC00001C1121F002AFBD17047000001490860B4
:102AD00070470000400000202DE9FF5FDDE9022083
:102AE000010DDDF838B0024318D044F61050A1F2C1
:102AF000FF3141430D140F98012820D0A5EB0B00A6
:102B0000401C5FEA000A4FF00004474EDFF81C91BA
:102B1000A046504616D5CAF1000728E00F980124B8
:102B200043A2012808D0002100980F9BC0E9002192
:102B3000C0E90243BDE8FF9F6FEA0B01F4E7CBF168
:102B40000000DEE7074612E0F80707D022463346CA
:102B500040464946FDF767FC804689462246334693
:102B600010461946FDF75FFC04460E467F10002F05
:102B7000EAD1DDE90201BAF1000F42464B4602DA22
:102B8000FDF751FC01E0FDF7C0FC04460E460022B3
:102B9000284BFDF7ABFD03D84FF0FF30014607E0AF
:102BA0000022254B20463146FDF796FBFDF721FF1D
:102BB000102409E0002C0ADB0A220023FDF7F4FDB3
:102BC000019B30321A55641E50EA0102F2D1641C96
:102BD000019AC4F1110314440F9A012A03D001226F
:102BE00008430DD10AE0084304D000204FF0110B38
:102BF0000F9080E7A3EB0B056D1E0DE05B4504DD38
:102C00004FF0000205F1010504E003DA4FF0000285
:102C1000A5F10105002AECD000980F99C0E9023116
:102C2000C0E9004586E70000000024400000F03FB6
:102C3000300000000000F0430000E03F2DE9FF4FAE
:102C400095B09B468946064600250FE2252877D198
:102C500000242746F84A0121059400E0044316F8B1
:102C6000013F203B01FA03F01042F7D130782A28C7
:102C700011D06FF02F033078A0F13002092A16D856
:102C8000059A44F0020402EB820203EB4202104474
:102C9000761C0590EFE759F8042B0592002A03DA19
:102CA000504244F40054059044F00204761C3078FD
:102CB0002E2816D116F8010F44F004042A280DD04E
:102CC0006FF02F023078A0F13003092B09D807EB01
:102CD000870302EB4303C718761CF3E759F8047B1C
:102CE000761C30786C280FD006DC4C2817D068286A
:102CF0000DD06A2814D104E0742810D07A280FD19E
:102D00000DE044F400140AE044F4801401E044F4BB
:102D100040147278824202D104F58014761C761C2D
:102D2000307866280BD013DC582877D009DC0028CF
:102D300075D04528F6D04628F4D047281AD19DE111
:102D400018E0632835D0642879D0652812D195E140
:102D5000702873D008DC6728F1D069286FD06E28FE
:102D60000DD06F2806D1B5E073282CD0752875D00A
:102D7000782874D05A46179990476D1C75E1C4F3B2
:102D80000250022809D003280DD0D9F800100428D9
:102D90000DD00D6009F1040967E1D9F80010EA17B8
:102DA000C1E90052F6E7D9F800100D80F2E70D7086
:102DB000F0E719F8041B8DF8001000208DF80100D1
:102DC000EA46012003E059F804AB4FF0FF306107F9
:102DD0004FF0000102D40DE008F101018846B9422C
:102DE0000FDA8045F8DB1AF808100029F4D108E062
:102DF00008F1010188468142FADB1AF8081000291F
:102E0000F6D105985B46A0EB080721463846179A8D
:102E100000F094FA284400EB080507E04DE029E1B2
:102E20000DE01AF8010B5A4617999047B8F10108BE
:102E3000F7D25B4621463846179A13E142E00A2250
:102E40000092C4F302524FF0000A022A08D059F847
:102E500004CB032A4FEAEC710AD00DE029E02AE006
:102E600009F1070121F00702F2E802C1914609E0E9
:102E70000FFA8CFC4FEAEC71042A03D14FFA8CFC58
:102E80004FEAEC71002907DA0A460021DCF1000C58
:102E900061EB02012D2202E0220504D52B228DF8E0
:102EA0000420012203E0E20701D02022F7E7904648
:102EB00059E00A2102E010220DE010214FF0000A33
:102EC00000910BE010224FF0000A44F004040827A0
:102ED000009203E008224FF0000A0092C4F302526D
:102EE000022A05D059F804CB0021032A08D009E0B2
:102EF00009F1070121F00702F2E802C1914605E05D
:102F00001FFA8CFC042A01D10CF0FF0C4FF00008D2
:102F1000220728D5702806D0009B83F0100353EABF
:102F20000A0305D00EE040228DF80420012208E0BB
:102F30005CEA010206D030228DF804208DF80500ED
:102F400002229046009B83F0080353EA0A030AD149
:102F50005CEA010201D1620705D530228DF8042018
:102F60004FF001087F1E582804D034A003900EA80B
:102F700002900DE036A0F9E753466046009AFDF74F
:102F800013FC84460398825C0298401E02900270F3
:102F90005CEA0100F0D1029806A9081A00F1200AA3
:102FA000600702D524F4803400E00127574502DD94
:102FB000A7EB0A0000E0002000EB0A010090059852
:102FC0004144401A0590E00306D45B462146179A17
:102FD000059800F0B3F90544002706E001A85A4619
:102FE000C05D179990476D1C7F1C4745F6DBE003D9
:102FF0000CD55B462146179A059800F09FF90544C9
:1030000004E030205A46179990476D1C0099481EDD
:1030100000900029F5DC08E0029802995A460078F1
:10302000491C0291179990476D1CBAF10001AAF151
:10303000010AF1DC65E1000009280100303132337A
:1030400034353637383961626364656600000000E4
:1030500030313233343536373839414243444546CE
:103060000000000000F058F90544761C3078002874
:103070007FF4ECAD19B02846BDE8F08F620700D4AC
:10308000062709F1070222F0070CFCE80223E146BB
:1030900003F000485FEA080C02D00FF2702C0DE03C
:1030A0005FEA045C02D50FF2682C07E05FEAC47C9B
:1030B00002D00FF2602C01E0AFF2700C4FF0FF383D
:1030C00023F00043CDF850C065280CD006DC45281D
:1030D00009D046281DD047283DD13DE0662818D0AC
:1030E00067287ED138E00021112F01DB112000E09C
:1030F000781CCDE9000106A90EA8FFF7EDFCDDE97B
:103100000F010E9A03910021009207F1010A049128
:103110004DE04FF000400097CDE9011006A90EA840
:10312000FFF7DAFCDDE90F0203920E9B11990022F2
:10313000DDF80CA00093049211B9791C00EB010A90
:10314000B7EB0A0004D4C0F1FF3007F1010A049084
:10315000AAEB0700019044E0012F00DA01270021CB
:10316000112F01DD112000E03846CDE9000106A94C
:103170000EA8FFF7B1FCDDE90F010E9A03910021C3
:1031800004910092BA4621070CD40399514500DA04
:103190008A46BAF1010F05DD009AAAF10101515CDE
:1031A000302908D0B84202DA10F1040F06DA012102
:1031B000CDE9011015E0AAF10101E9E7002805DCDD
:1031C000049901440491AAEB000102E0411C51451D
:1031D00000DD8A460499401A401C01904FF00040DF
:1031E0000290200704D40198504501DBCDF80480FB
:1031F00000208DF84F0002980DF14F07B0F1004FFD
:1032000025D02B200E9002984FF0020800280CDAEF
:10321000404202902D200E9007E00A210298FDF70F
:10322000ADFA3031029007F8011DB8F10001A8F1A4
:103230000108F2DC02980028EFD1791E0E98087080
:10324000307800F0200040F0450007F8020D12A889
:10325000C01B00F107081498007800B1012000EBB2
:103260000A01019801EBE07105984144401A401EA3
:103270000590E00306D45B462146179A059800F0B6
:103280005DF805441498007818B15A46179990478C
:103290006D1CE00324D55B462146179A059800F083
:1032A0004DF805441CE00498002807DBDDE9030124
:1032B000884203DD0098405C179901E0179930209F
:1032C0005A469047049805F10105401C0490019866
:1032D000401E019004D12E205A46179990476D1C2C
:1032E000BAF10001AAF1010ADDDC05E017F8010BD3
:1032F0005A46179990476D1CB8F10001A8F10108D2
:10330000F4DC5B462146179A0598ABE62D000000D9
:103310002B000000200000002DE9F04104460025AC
:103320001E461746880404D405E039462020B047DD
:103330006D1C641EF9D52846BDE8F0812DE9F041E9
:10334000044600251E469046C80301D5302700E0FC
:103350002027880404D505E041463846B0476D1C57
:10336000641EF9D52846BDE8F0810A68531C0B603D
:10337000107070472DE9F0418EB000F0EFFA00F0C8
:10338000CBF800214A480068FDF7E4F91BD149A0B9
:1033900000234FF47842212100900520FDF74AFDDB
:1033A00045A000234FF47842212100903820FDF7FA
:1033B00041FD4FF4784037233A2202210090104615
:1033C000FDF7FAFE5FE03F483FA1026801A8FFF762
:1033D00059FB01A800234FF47842212100900520D9
:1033E000FDF728FD3AA0FDF781FB01A8FDF77EFB64
:1033F00039A0FDF77BFBFCF795FE092190FBF1F26C
:1034000001FB120000F15A042046FDF7EDF880465A
:103410002C4948683149FDF79DF901D2404601E049
:1034200028484068274948604868FDF734F906464F
:103430002B4A2C4BFDF75AF902D22948294903E0BF
:1034400020494868FDF727F90446FDF767F91D494B
:1034500048604868FDF71FF9044622460B4622A142
:1034600001A8FFF70FFB01A800234FF478422121A8
:1034700000903820FDF7DEFC1EA0FDF737FB01A809
:10348000FDF734FB00BF0F4801681CA0FFF7EAFA04
:103490000A2000F0ABFA0B494868FDF7FCF8044637
:1034A00022460B4618A0FFF7DDFA0EB0BDE8F0810A
:1034B000180000202D2D0000202D2D202020202060
:1034C00000000000240000202532642020000000BD
:1034D00048523A2000000000202000000000B442C2
:1034E0008FC2F5285CFF58402025322E32662525F4
:1034F0002020000053504F323A2000004852203A1A
:10350000202533642020000053504F32203A2530CC
:103510002E3266200D0A00002DE9F04F91B04FF0D9
:103520000009CA4600200F900E9000240FE0FA48D0
:1035300050F834104846FCF707FE8146F74850F82B
:1035400034105046FCF700FE8246601C84B2B4F58D
:10355000007FECDB4FF088414846FCF77FFE814658
:103560004FF088415046FCF779FE8246002413E074
:10357000E94951F834004946FCF738FEE64941F87C
:103580003400E64951F834005146FCF72FFEE34978
:1035900041F83400601C84B2B4F5007FE8DB0124FC
:1035A0004FE0DD4850F834104FF08040FCF724FE27
:1035B0008046601ED84A52F830104046FCF7C4FDE1
:1035C0000746D54A601C52F830103846FCF7BCFD5F
:1035D00010901098FDF75FF807460022D04BFCF7DB
:1035E00094FFCDE90A01FDF799F8CB4941F8340081
:1035F000CA4850F834104FF08040FCF7FDFD80467B
:10360000601EC64A52F830104046FCF79DFD074642
:10361000C24A601C52F830103846FCF795FD1090F5
:103620001098FDF738F80022BD4BCDE90A01FCF7F0
:103630006CFF0746FDF772F8B84941F83400601C8A
:1036400084B2B4F5FF7FACDD002493E0B24B621C82
:1036500053F832101A4652F83400FCF775FDAE4AA2
:103660000890A01C52F830100898FCF76DFD8046B9
:10367000A94AE01C52F830104046FCF765FD0746A9
:10368000A54A201D52F830103846FCF75DFDA24ACD
:103690000990601D52F830100998FCF755FD9E4ABC
:1036A0000A90A01D52F830100A98FCF74DFD9A4A76
:1036B0000B90E01D52F830100B98FCF745FD109070
:1036C0001098FCF7E8FF07460022964BFCF71DFF19
:1036D000CDE90A01FDF722F88F4941F834008F4BFC
:1036E000621C53F832101A4652F83400FCF72CFDD5
:1036F0008A4A0890A01C52F830100898FCF724FD64
:10370000864A0990E01C52F830100998FCF71CFD1D
:10371000824A0A90201D52F830100A98FCF714FDD6
:103720007E4A0B90601D52F830100B98FCF70CFD90
:1037300080467A4AA01D52F830104046FCF704FD3E
:103740000746764AE01D52F830103846FCF7FCFC7C
:1037500010901098FCF79FFF0022724BCDE90A01F0
:10376000FCF7D3FE0746FCF7D9FF6C4941F834005B
:10377000601C84B2B4F5FC7FFFF668AF00206A4994
:1037800008806548FDF7F8F96448FDF7F5F900246D
:1037900039E0614A02EBC40251685F4A02EBC4029D
:1037A0005068FCF729FD80465B4A52F8341052F805
:1037B0003400FCF721FD41460B90FCF7C5FC0746A1
:1037C00000F0CAFA544941F83400544A02EBC402EA
:1037D0005168524A02EBC4025068FCF70DFD804666
:1037E0004E4A52F8341052F83400FCF705FD4146B9
:1037F0000B90FCF7A9FC074600F0AEFA464941F8E9
:103800003400601C84B2B4F5007FC2DB01240FE0F9
:10381000414850F834100F98FCF796FC0F903F4841
:1038200050F834100E98FCF78FFC0E90601C84B298
:10383000B4F5007FECDB1E21374800F0F3F80D9063
:103840001E21364800F0EEF80C900D98FCF7DAFED9
:103850000022364BCDE90601FCF7E5FD07460022C4
:103860004FF08143FCF751FE0022314BCDE90801B6
:10387000FCF7D9FDCDE90A01FCF750FF8346584615
:10388000FCF7D1FE2B4908602BA00D99FFF7EAF851
:1038900051460F98FCF7B0FC074649460E98FCF7D6
:1038A000ABFC80463946FCF7D9FC05462846FCF7B8
:1038B000F2FE0746224A234BFCF7B5FDCDE906018F
:1038C0002846FCF7E8FECDE902012846FCF7E3FEB6
:1038D0001D4A1E4BCDE90001FCF7A5FD0746DDE9B9
:1038E0000223FCF7A0FDCDE90401DDE90623FCF786
:1038F000F3FC174A174BCDE90801FCF7EDFCCDE9C5
:103900000A01FCF70BFF06460A494E6012480560A3
:1039100011B0BDE8F08F000044000020C41000206A
:10392000000010400000204014000020000059401A
:1039300000004E4024000020256C640D0A000000A9
:10394000B4C876BE9F5A3E4048E17A14AE8746C05E
:10395000AE47E17A14B657401800002010B5002099
:103960001C49088030E029E000F0DEF819480088A2
:10397000B0F5007F22DA18480088FCF73EFE1749B0
:10398000144A128841F832000020124A128801EBD2
:10399000C201486012480088FCF72FFE11490D4A09
:1039A000128841F8320000200A4A128801EBC20155
:1039B000486008480088401C0649088080210A4861
:1039C000FDF72BFA0028CFD002480088B0F5007F21
:1039D000C9DB10BD140000202C0000204400002092
:1039E0002E000020C410002000100140014642F2C9
:1039F00028324A434FF0E0235A6100229A610122A3
:103A00001A6100BF4FF0E022106900F001021AB104
:103A100000F48032002AF5D000224FF0E0231A6132
:103A20009A6170472DE9F04105460E460424274669
:103A300055F8348000BF09E055F834104046FCF7D3
:103A400089FE02D255F834802746641CB442F3DB69
:103A50003846BDE8F081000070B504460D46E1B27D
:103A60000548FEF7B8FE00BF80210348FEF7E6FDDB
:103A70000028F9D0204670BD00380140002001E048
:103A8000411CC8B21428FBDB70470000FEF77AFD2A
:103A9000FDF7F9FC04201C4908601CA0FEF7E2FFBA
:103AA000FEF770F8FDF7B0FCFCF7CEFFFDF7E4FE83
:103AB000FEF7DEF9FDF78CFE0020FDF7CBFC00F0F1
:103AC0008DF900240AE001E000F02EF8802114486E
:103AD000FDF7A3F90028F7D0601CC4B2802CF2DBFC
:103AE00010E0FDF70DF8FFF745FC00F04BF9FEF78D
:103AF000F3FB0746FCF7CFFD05462A460B4609A017
:103B0000FEF7B0FFEDE7000010140140D5E2CAC790
:103B1000B4AEBFDAB5F7CAD4D6FACAD60D0A0000D9
:103B200000100140256600001CB500202F490880C8
:103B30002F4908800021AE20FDF70AFF0121AE20A9
:103B4000FDF706FF07208DF8000006236A460721CF
:103B5000AE20FDF7BBFE9DF800404FF6FF7000EA77
:103B60008434224800882044204908809DF8014080
:103B70004FF6FF7000EA841408460088204408804D
:103B80009DF80240A41008460088204408809DF853
:103B900003404FF6FF7000EA843415480088204443
:103BA000134908809DF804404FF6FF7000EA841422
:103BB00008460088204408809DF80540A410084667
:103BC0000088204408800846008842F2107188422C
:103BD00002DC0020064908800448008842F2107187
:103BE000884202DC0020014908801CBD2C00002016
:103BF0002E0000202DE9FC4104460D46CDE900458C
:103C0000019800F0004080B120462946FCF724FDD1
:103C10008046FCF7E9FC07464FF07E51FCF7E6FAD8
:103C20000646FCF738FDBDE8FC8120462946FCF736
:103C300013FD0746FCF7D8FC0646FCF72CFDF2E71F
:103C40002DE9FC5F06460F4614461D46002213462A
:103C500020462946FCF732FD03D100200146BDE88D
:103C6000FC9F22462B4630463946FCF74EFC8246E6
:103C7000FFF7C0FFCDE9000122462B46DDE9000138
:103C8000FCF7D1FB824632463B46FCF7C9FB804637
:103C900089460022134630463946FCF70FFD02D212
:103CA0004FF0010A01E04FF0000A002213462046BF
:103CB0002946FCF703FD01D2012000E000208245E7
:103CC00007D022462B4640464946FCF7A6FB8046D5
:103CD000894640464946C2E72DE9F05F07468846D7
:103CE00015461E46DDF8289008EB0600401E83B2FC
:103CF0007819401E82B241463846FDF70FFD002478
:103D00000BE019F814B009EB440090F801A04BEA5D
:103D10000A20FDF763FB601C84B205FB06F0A0429D
:103D2000EFDCBDE8F09F000038B5044644B1094817
:103D30000A2306226E2100907820FFF7CDFF08E0CD
:103D40004FF6FF700A2306226E2100907820FDF7BF
:103D5000BDFC38BDF25C000870B50546FCF7BDFD42
:103D6000044620F00040C0F1FF40C00F08D025F00D
:103D70000040C0F1FF40C00F04BF0120FEF7A6FEC7
:103D8000204670BD30B58FB0FEF7A6FA0E49086028
:103D900008460068FCF77FFC044622460B460BA150
:103DA00002A8FEF76FFE02A800234FF478426621B6
:103DB00000900220FDF73EF806A0FCF797FE02A84F
:103DC000FCF794FE0FB030BD3400002025322E32B7
:103DD00066A1E60054203A200000000008B54FF428
:103DE000784080231A46002100900846FDF751FADA
:103DF0004FF4784080233A22372100900120FDF7CC
:103E000048FA23481E230D223C2100900A20FFF788
:103E100063FF20A000234FF4784240210090282027
:103E2000FDF7D2F84FF4784037233A220221009070
:103E30000846FDF72EFA184817231E22022100908B
:103E40000846FFF749FF15A000234FF478420221EE
:103E500000902220FCF7EEFF4FF4784037238022B9
:103E6000022100903A20FDF714FA0D481E23192272
:103E7000012100903B20FFF72FFF0AA000234FF401
:103E80007842052100905A20FCF7D4FF08BD0000BD
:103E9000A64E0008540000008E570008485200004B
:103EA000B251000853504F320000000000000000E3
:103EB00000000000000000000000000000101010D2
:103EC00010101010101000001010000000006C6C9A
:103ED000242400000000010000000000002424242D
:103EE00024FE48484848FC909090900000103C54B4
:103EF0009290503814121292547810000000225CF4
:103F000094A8481010242A52548800000000304819
:103F10004850206E54948C888A7400000000303021
:103F20001010000000000000000000000004081055
:103F300010202020202020101008040000804020A5
:103F400020101010101010202040800000000000F1
:103F50001054381038541000000000000000001009
:103F6000101010FE101010100000000000000000E3
:103F70000000000000000000101020000000000001
:103F8000000000FE00000000000000000000000033
:103F900000000000000000001010000000000404F9
:103FA00008081010202040408080000000003844A5
:103FB00082828282828282824438000000001070F5
:103FC0001010101010101010107C00000000384469
:103FD000828204081020408284FC000000003844E3
:103FE0008202043804020282443800000000040CFB
:103FF000141424244444FE04040E00000000FC8039
:104000008080B8C4820202828478000000003C42B2
:104010008280B8C4828282824438000000007E42DE
:104020008204040808081010101000000000384432
:10403000828244384482828244380000000038443E
:1040400082828282463A02824438000000000000E8
:104050001010000000001010000000000000000020
:1040600010100000000000101020000000000000F0
:1040700006186080601806000000000000000000C4
:104080000000FE0000FE0000000000000000000034
:10409000C0300C020C30C000000000000038448228
:1040A00082020408101010001010000000003844B4
:1040B000829AAAAAAAAAAA9680423C0000001010DE
:1040C0001028282844447C4444EE00000000FC42B0
:1040D0004242427C4242424242FC000000003C44D8
:1040E0008280808080808282443800000000F84412
:1040F000424242424242424244F800000000FC4434
:104100004240447C4440404244FC00000000FC44E7
:104110004240447C4440404040F000000000344CA9
:10412000828080808E8484844C3400000000EE44C1
:104130004444447C4444444444EE000000007C1069
:104140001010101010101010107C000000003E081D
:104150000808080808080888887000000000EE4475
:10416000484850605048484444EE00000000E04099
:10417000404040404040404244FC00000000C644F3
:104180006C6C6C545454444444EE00000000CE4423
:1041900064646454544C4C4C44E4000000003844C3
:1041A0008282828282828282443800000000F84447
:1041B000424242447840404040E000000000384421
:1041C00082828282828282BA443C02000000F048ED
:1041D000444444487048444444E6000000003C44E1
:1041E000828040300C0202824478000000007C543F
:1041F0009210101010101010103800000000EE4443
:104200004444444444444444443800000000EE44E0
:104210004444442828282810101000000000EE44D0
:104220005454545454542828282800000000EE44C4
:10423000442828101028284444EE00000000EE44D2
:1042400044282828101010101038000000007E4468
:10425000840808102020408284FC0000001C1010FC
:10426000101010101010101010101C000000EE4460
:104270005454FE545454282828280000007010106C
:104280001010101010101010101070000030488422
:10429000000000000000000000000000000000001E
:1042A00000000000000000000000FE0000402000B0
:1042B00000000000000000000000000000000000FE
:1042C00000007884047C84848C7600000000C04068
:1042D00040405864424242426458000000000000DE
:1042E00000003844808080804438000000000C04C6
:1042F0000404344C848484844C36000000000000A4
:104300000000788484FC80808478000000001824F9
:104310002020F82020202020207000000000000035
:1043200000003A444478807C82827C000000C040D7
:10433000404058644444444444EE000000001010DF
:104340000000301010101010103800000000101085
:104350000000301010101010109060000000C040DD
:1043600040405C485060504844EE0000000030106F
:104370001010101110101010103900000000000073
:104380000000ACD29292929292D6000000000000FF
:10439000000058E44444444444EE0000000000009F
:1043A000000038448282828244380000000000000D
:1043B0000000D864424242645840E000000000001F
:1043C0000000364C8484844C34040E00000000004D
:1043D00000006C3020202020207000000000000031
:1043E0000000788884601884447800000000002071
:1043F0002020F820202020202418000000000000A9
:104400000000C64242424242463A0000000000001C
:104410000000EE444428282810100000000000008E
:104420000000EE44445454282828000000000000F6
:104430000000EE442810102844EE000000000000A8
:104440000000EE444428281010A0C0000000000026
:1044500000007E448810204284FC0000000C1010F4
:10446000101010601010101010100C000010101020
:1044700010101010101010101010100000C020208C
:1044800020202018202020202020C0000000000034
:10449000000000728C00000000000000000000001E
:1044A00000001FE000003FF000003FF000001FE0B0
:1044B000000180060003C00F0003C00F0003C00FFF
:1044C0000003C00F0003C00F0003C00F0003C00FA4
:1044D0000003C00F00030003000000000000000004
:1044E00000000000000300030003C00F0003C00F22
:1044F0000003C00F0003C00F0003C00F0003C00F74
:104500000003C00F0003C00F0001800600001FE081
:1045100000003FF000003FF000001FE0000000003E
:104520000000000000000080000001800000038007
:10453000000007800000078000000780000007805F
:10454000000007800000078000000780000007804F
:104550000000078000000180000000000000000053
:1045600000000000000001800000078000000780BC
:10457000000007800000078000000780000007801F
:104580000000078000000780000007800000038013
:10459000000001800000008000000000000000001A
:1045A00000001FE000003FF00000FFF00001FFE00E
:1045B000000000060000000F0000000F0000000FC8
:1045C0000000000F0000000F0000000F0000000FAF
:1045D0000000000F00001FE300007FF800007FF8DC
:1045E00000001FE0000300000003C0000003C00043
:1045F0000003C0000003C0000003C0000003C000AF
:104600000003C0000003C0000001800000001FF094
:1046100000003FF800003FFC00001FFE000000000B
:104620000003FF800001FFC00000FFC000007F808A
:10463000000000180000003C0000003C0000003CAE
:104640000000003C0000003C0000003C0000003C7A
:104650000000003C00007F8C0001FFE00001FFF043
:1046600000007F800000000C0000003C0000003CC7
:104670000000003C0000003C0000003C0000003C4A
:104680000000003C0000003C0000001800007F809B
:104690000000FFC00001FFC00003FF800000000019
:1046A0000000000000020001000300030003800777
:1046B0000003C00F0003C00F0003C00F0003C00FB2
:1046C0000003C00F0003C00F0003C00F0003C00FA2
:1046D0000003C00F00031FE300007FF800007FFC11
:1046E00000001FE0000000030000000F0000000FAA
:1046F0000000000F0000000F0000000F0000000F7E
:104700000000000F0000000F0000000F0000000775
:104710000000000300000001000000000000000095
:1047200000001FFC00003FF800003FF000001FE009
:10473000000180000003C0000003C0000003C000AF
:104740000003C0000003C0000003C0000003C0005D
:104750000003C00000031FE000007FF800007FF8A6
:1047600000001FE0000000030000000F0000000F29
:104770000000000F0000000F0000000F0000000FFD
:104780000000000F0000000F0000000600003FE0E6
:1047900000007FF00000FFF00001FFE000000000DB
:1047A00000001FFC00003FF800003FF000001FE089
:1047B000000180000003C0000003C0000003C0002F
:1047C0000003C0000003C0000003C0000003C000DD
:1047D0000003C00000031FE000007FF800007FFC22
:1047E00000001FE0000300030003C00F0003C00F20
:1047F0000003C00F0003C00F0003C00F0003C00F71
:104800000003C00F0003C00F0001800600001FE07E
:1048100000003FF000003FF000001FE0000000003B
:104820000007FFE00003FFC00001FF880000FF1841
:1048300000000038000000780000007800000078D8
:104840000000007800000078000000780000007888
:1048500000000078000000180000000000000000C8
:104860000000000000000018000000780000007840
:104870000000007800000078000000780000007858
:104880000000007800000078000000780000003888
:1048900000000018000000080000000000000000F8
:1048A00000001FE000003FF000003FF000001FE0AC
:1048B000000180060003C00F0003C00F0003C00FFB
:1048C0000003C00F0003C00F0003C00F0003C00FA0
:1048D0000003C00F00031FE300007FF800007FFC0F
:1048E00000001FE0000300030003C00F0003C00F1F
:1048F0000003C00F0003C00F0003C00F0003C00F70
:104900000003C00F0003C00F0001800600001FE07D
:1049100000003FF000003FF000001FE0000000003A
:1049200000001FE000003FF000003FF000001FE02B
:10493000000180060003C00F0003C00F0003C00F7A
:104940000003C00F0003C00F0003C00F0003C00F1F
:104950000003C00F00031FE300007FF800007FFC8E
:1049600000001FE0000000030000000F0000000F27
:104970000000000F0000000F0000000F0000000FFB
:104980000000000F0000000F0000000600001FE004
:1049900000003FF000007FF00000FFE0000000009A
:1049A0000000000000000000000000000000000007
:1049B00000000000000000000000000000000000F7
:1049C00000000000000000000000000000000000E7
:1049D00000000000000000000000000000000000D7
:1049E00000000000000000000000000000000000C7
:1049F00000007800000078000000780000007800D7
:104A000000007800000078000000000000000000B6
:104A10000000000000000000000000000000000096
:104A20000000000000000000000000000000000086
:104A3000000000000000000000000000000007006F
:104A400000000F8000000F8000000F8000000700B2
:104A50000000000000000000000000000000000056
:104A600000000000000000000000070000000F80B0
:104A700000000F8000000F80000007000000000011
:104A80000000000000000000000000000000000026
:104A90000000000000000000000000000000000016
:104AA0000000000000000000000000000007C00639
:104AB000000FE0060000000C003018180030181835
:104AC000003018300030183000301860003008C056
:104AD0000007C0C0000FE080000000000000000FD1
:104AE000E0000607C000063018000C3018000C303B
:104AF00018001830180030301800303018006000EE
:104B00000000C00FE000C007C0000000000000006F
:104B10000000000000000000000000000000000095
:104B20000000000000000000000000000000000085
:104B300000000000000700E0000887FC00088E036A
:104B40000008980180071800800030000000300045
:104B500000007000000060000000600000006000C5
:104B600000006000000060000000700000003000E5
:104B700000003000000038000000180100000C03A5
:104B8000000007FC000001F0000000000000000031
:104B90000000000000000000000000000000000015
:104BA0000000000000000000000000000000000005
:104BB00000000000000000000000000000000000F5
:104BC00000000000000000000000000000000000E5
:104BD000000000000000000000003FF000007FF037
:104BE00000007FE00000FFC00000000000000000A7
:104BF00000000000000000000000000000000000B5
:104C000000000000000000000000000000000000A4
:104C10000000000000000000000000000000CCE5E3
:104C2000084008400840104017FC304030E050E099
:104C300091501150124815F4184210401040104085
:104C4000CEC2000023F81208120883F84208420876
:104C500013F8100027FCE4A424A424A424A42FFE09
:104C60000000D0C4000002000100008000800400A9
:104C7000040824042404240244024412841004106E
:104C800003F00000C2CA020001007FFC020044449D
:104C90002F88111022484FE400200100FFFE010080
:104CA000010001000100A1E6600091F4960C6C0483
:104CB0000804180018001800180018001800080050
:104CC0000C04060801F000000000000000000000D5
:104CD00000000000000000000000000000000000D4
:104CE00000000000000000000000BDA10000000264
:104CF00000000200C002008007F7F80420980C6052
:104D000098084FFE0C409818C09829FFF8289090FA
:104D10004810880837F809208009208008AFFC086F
:104D2000E080084080087080089E060D03FC0A00A1
:104D300000000000BFB5000000000800000C0000EB
:104D400004080FFFFC080C00080C0009FFF0080C19
:104D500020080C200FFFFC080C2009FFE0080E20A3
:104D6000088E18084D30184D60103C8010CCC023C0
:104D70008C70266C3E401808400000000000BCEC1F
:104D800000000004020004020004070004050004FF
:104D90000C807FC8400410300C201C0E40080DBF52
:104DA000E00D8000148430140230242230242320AB
:104DB00044132004116004104004104004008004D7
:104DC000FFFC040000000000B2E200000000000050
:104DD00010000809FE080D860801860801B6684122
:104DE000B64833B64813B64813B64805B64805B6B4
:104DF0004805B64809A64809A64839A448196008D4
:104E000018580818C4081886081B0238040018002F
:104E10000000D2C7000000010000030800030400E6
:104E20000202000603100402300C20200E20201C79
:104E300010601410402410C0240880440D80040524
:104E4000000403000403000405800408C00410707B
:104E500004203C04C01C05000000000054000000B9
:104E600000000000000000007FE046208610861051
:104E70000600060006000600060006000600060002
:104E80000600060006001F80000000000000000071
:104E90000000000000000000000000000000000012
:104EA000000000000000BEF7BEF7BEF7A4F0C4E8A3
:104EB000C4E8C4F0C8E1BEF7BEF7BEF7BEF7BEF760
:104EC000BEF7BEF798FDB7FDBEF7BEF7BEFFC4E85C
:104ED000BEF7BEF7BEF7BEF7BEF7BEF7BEF776F574
:104EE00038FEBEF7BEF7BEF7A4F0BEF75EFF5DFF6B
:104EF0007DF7BFF7BEF7BEF775F538FEBEF7BEF714
:104F0000BEF7A4F0BDEF5CFF3CFF3CFF9FF7BEF790
:104F1000BEF775F538FEBEF7BEF7BEF7A4F0DDEFBD
:104F2000DFF7BEF7BEF7BEF7BEF7BEF775F538FE82
:104F3000BEF7BEF7BFF7A4F09EFF31FC32F4BEF718
:104F4000BEF7BEF7BEF775F539FEBEF7BFF7BEF781
:104F5000A4F0BEF7BFFFDEF7BEF7BEF7BEF7BEF7A1
:104F600075F558FEBEF7BEF7BEF7A5F09EF747E908
:104F700087E9BFF7BEF7BEF7BEF775F53AFEE4E87E
:104F8000E4E8E5E8A4F0BEF7BEF7BEF7BEF7BEF76B
:104F9000BEF7BEF775F53BFEC4E8C4E8E4E8A4F04C
:104FA000BDEFC4E8E4E8BEF7BEF7BEF7BEF775F59F
:104FB0003AFEC4E8E4E8C5E8A4F0BDF7BFFFBEFFD1
:104FC000BFF7BEF7BEF7BEF775F53AFEC4E8C4E812
:104FD000E4E8A4F0BEEFC5E8E4E8E4E89FF7BEF734
:104FE000BEF775F53AFEC4E8C4E8C4E8C4E8BEF705
:104FF000BEFFBEFF9EFFBEF7BEF7BEF775F53AFED9
:10500000C4E8C4E8C4E8A4E89DF7CCEACBE2BEF764
:10501000BFF7BEF7BEF775F53AFEC4E8C4E8C4E8CA
:10502000C4E89DF79DF79EF7BEF7BEF7BEF7BEF743
:1050300075F53AFEC4E8C4E8C4E8A4E8BEF7B7FDD5
:10504000B7FDBEF7BEF7BEF7BEF775F53AFEC4E88A
:10505000C4E8C4E8C4E8BEF7BEF7BDF7BFF7BEF7C3
:10506000BEF7BEF775F53AFEC4E8C4E8C4E8C4E884
:10507000BEF79EF7BEEFBEF7BEF7BEF7BEF775F5FB
:105080003AFEC4E8C4E8C4E8A4E8BEEF37F6F8F591
:10509000BEF7BEF7BEF7BEF775FD3AFEC4E8C4E83A
:1050A000C4E8C4E89EF7BEFFBEF7BEF7BEF7BEF782
:1050B000BEF775F53AFEE4E8C4E8E4E8C4E8BEF7F4
:1050C0008BEA8BF26BEA9EF7BEF7DEEF06E958FE3D
:1050D000E5E0C4E8C4E8C4E8F5ECBEF7BEF7BEF707
:1050E000BEF7BEF70EEB31F4E5E0E4E8C4E8E4E82F
:1050F00034F504D99EF7BEF7BEF7BEF7BEF7E4E07D
:1051000031F4E5E8C4E8C4E8C4E8C4E87CF60CDBA4
:10511000BEF7BEF7BEF7BEF7C4E8E5E8E4E8C4E8CA
:10512000C4E8C4E8C4E8DDF705E9BEFFBEF7BEF792
:10513000BEF7E4E846E1E4E8C4E8C4E8C4E8C4E84B
:105140009EF7E5E89EFFBEF7BEF7BEF7C5F01CF779
:10515000C4E8C4E8C4E8C4E8C4E88FEBF7FDBEF7D0
:10516000BEF7BEF7BEF719EFE4E096FDC4E8C4E869
:10517000E4E89CF7C5E87EFFBEF7BEF7BEF7BEF7D2
:10518000BEF794ECE3F092F4D9FE47F1E4E09EF729
:10519000BEF7BEF7BEF7BEF7BEF7BEF7BEF7BEF767
:1051A000B4F4CEEAB9FE9EF7BEF7BEF7BEF7BEF77F
:1051B000BEF7FFFFFFFFFFFFFFFFFFFFFFFFFFFF48
:1051C000FFFFFFFFFFFFFFFFFFFFFFFFFFFFFFFFEF
:1051D000FFFFFFFFFFFFFFFFFFFFFFFFFFFFFFFFDF
:1051E000FFFFFFFFFFFFFFFFFFFFFFFFFFFFFFFFCF
:1051F000FFFFFFFFFFFFFFFFFFFFFFFFFFFFFFFFBF
:10520000FFFFFFFFFFFFFFFFFFFFFFFFFFFFFFFFAE
:10521000FFFFFFFFFFFFFFFFFFFFFFFFFFFFFFFF9E
:10522000FFFFFFFFFFFFFFFFFFFFFFFFFFFFFFFF8E
:10523000FFFFFFFFFFFFFFFFFFFFFFFFFFFFFFFF7E
:10524000FFFFFFFFFFFFFFFFFFFFFFFFFFFFFFFF6E
:10525000FFFFFFFFFFFFFFFFFFFFFFFFFFFFDEFF7F
:10526000BFFFFFFFFFFFFFFFFFFFFFFFFFFFFFFF8E
:10527000FFFFFFFFFFFFFFFFFFFFFFFFFFFFFFFF3E
:10528000FFFFFFFFFFFFFFFFFFFFFFFFFFFFFFFF2E
:10529000B3EC27E2FFFFFFFFFFFFFFFFFFFFFFFF72
:1052A000FFFFFFFFFFFFFFFFFFFFFFFFFFFFFFFF0E
:1052B000FFFFFFFFFFFFFFFFFFFFFFFFFFFFFFFFFE
:1052C0009EFF65F165E955F5FFFFFFFFFFFFFFFF5B
:1052D000FFFFFFFFFFFFFFFFFFFFFFFFFFFFFFFFDE
:1052E000FFFFFFFFFFFFFFFFFFFFFFFFFFFFFFFFCE
:1052F000FFFFE8E965F165F165F17EFFFFFFFFFF64
:10530000FFFFFFFFFFFFFFFFFFFFFFFFFFFFFFFFAD
:10531000FFFFFFFFFFFFFFFFFFFFFFFFFFFFFFFF9D
:10532000FFFFD2EC45F165F165F145F169E2DFFF80
:10533000FFFFDFFF9EFFFFFFFFFFFFFFFFFFFFFFFE
:10534000FFFFFFFFFFFFFFFFFFFFFFFFFFFFFFFF6D
:10535000FFFF9CFF46E965F165F165F166E992ECB6
:10536000FFFFFFFF10EC27E2DFFFFFFFFFFFFFFF64
:10537000FFFFFFFFFFFFFFFFFFFFFFFFFFFFFFFF3D
:10538000FFFFFFFF8AE265F165F165F145F1A7F1E5
:10539000DEFFFFFF7DFF65F165F1B6F5FFFFFFFF63
:1053A000FFFFFFFFFFFFFFFFFFFFFFFFFFFFFFFF0D
:1053B000FFFFFFFF59F665F165F165F165F165F1F4
:1053C00035EDFFFFFFFF29EA65F145F1A6E9DFFFB3
:1053D000FFFFFFFFFFFFFFFFFFFFFFFFFFFFFFFFDD
:1053E000FFFFFFFFDFFFE7E965F165F165F165F1BB
:1053F00046F1DFFFFFFF99F665F165F145F166F1D2
:10540000B3F4FFFFFFFFFFFFFFFFFFFFFFFFFFFF03
:10541000FFFFFFFFFFFFD7F564F165F165F165F16F
:1054200065F1EBEAFFFFFFFF4AEA65F165F165F11F
:1054300066F186E9DEFFFFFFFFFFFFFFFFFFFFFFD3
:10544000FFFFFFFFFFFFDFFFA5E145F145F165F13C
:1054500045F165E97EFFFFFFDEFF45F165F145F1AE
:1054600065F165F145F138F6FFFFFFFFFFFFFFFF34
:10547000FFFFFFFFFFFFFFFF15ED45F145F165F170
:1054800065F145F145F1BEFFFFFFF8F545F165F126
:1054900065F165F165F165F16EEBFFFFFFFFFFFF61
:1054A000FFFFFFFFFFFFFFFFFFFFA7E945F165F1EA
:1054B00065F165F145F165E97EFFFFFF1BFF65F1D1
:1054C00065F165F165F165F145F112EDFFFFFFFF53
:1054D000FFFFFFFFFFFFFFFFFFFFFBFE65F165F131
:1054E00065F165F165F165F165F14DEBFFFFFFFFDA
:1054F00008EA65F165F165F165F165E9BEFFFFFF59
:10550000FFFFFFFFFFFFFFFFFFFFFFFF0CEB45F17A
:1055100065F165F165F165F165F165F165F1BEFF74
:10552000FFFF9DFF6AEA65F165F107E2FBFEFFFF01
:10553000FFFFFFFFFFFFFFFFFFFFFFFFFFFF86E90A
:1055400045F165F165F165F165F165F165F165F1CB
:105550000CEBFEFFFFFFFFFF9EFF9DF7DFFFFFFF4E
:10556000FFFFFFFFFFFFFFFFFFFFFFFFFFFFFFFF4B
:1055700044E945F165F165F165F165F165F165F1C4
:1055800065F145E90BEBDFFFFFFFFFFFFFFFFFFFCB
:10559000FFFFFFFFFFFFFFFFFFFFFFFFFFFFFFFF1B
:1055A000FFFF45F145F165F165F165F165F165F1E3
:1055B00065F165F165F165F185E952ECDAFE7CFF94
:1055C00059F6BEF7FFFFFFFFFFFFFFFFFFFFFFFFE3
:1055D000FFFFFFFF09EA65F165F165F165F165F12E
:1055E00065F165F165F165F165F165F145E945F153
:1055F00065F165E9DEFFFFFFFFFFFFFFFFFFFFFF34
:10560000FFFFFFFFFFFF54ED45F165F165F165F127
:1056100065F165F165F165F165F165F165F165F1DA
:1056200065F165F189EAFFFFFFFFFFFFFFFFFFFF65
:10563000FFFFFFFFFFFFFFFFDEFF85F165F165F173
:1056400065F165F165F165F165F165F165F165F1AA
:1056500065F165F165F17AF6FFFFFFFFFFFFFFFFE0
:10566000FFFFFFFFFFFFFFFFFFFFFFFF95F566F165
:1056700065F165F165F165F165F165F165F165F17A
:1056800065F145F165F1CAE2DFFFFFFFFFFFFFFFB4
:10569000FFFFFFFFFFFFFFFFFFFFFFFFFFFFFFFF1A
:1056A0000FE445F165F165F165F165F165F165F1CD
:1056B00065F165F165F108EADEFFFFFFFFFFFFFF1F
:1056C000FFFFFFFFFFFFFFFFFFFFFFFFFFFFFFFFEA
:1056D000FFFFFFFF96F545E965F165F165F165F1BD
:1056E00065F165F165F18EEBDEFFFFFFFFFFFFFF68
:1056F000FFFFFFFFFFFFFFFFFFFFFFFFFFFFFFFFBA
:10570000FFFFFFFFFFFFFFFFDFFFD2EC48EAA6E944
:1057100086E9E8E9AEEB7EFFFFFFFFFFFFFFFFFF3B
:10572000FFFFFFFFFFFFFFFFFFFFFFFFFFFFFFFF89
:10573000FFFFFFFFFFFFFFFFFFFFFFFFFFFFFFFF79
:10574000FFFFDFFFDFFFFFFFFFFFFFFFFFFFFFFFA9
:10575000FFFFFFFFFFFFFFFFFFFFFFFFFFFFFFFF59
:10576000FFFFFFFFFFFFFFFFFFF7DFF7FFFFFFFF79
:10577000FFFFFFFFFFFFFFFFFFFFFFFFFFFFFFFF39
:10578000FFFFFFFFFFFFFFFFFFFFFFFFFFFFFFFF29
:10579000FFFFFFFFFFFFFFFFFFFF14D5C1B8A1B060
:1057A000DEF7FFFFFFFFFFFFFFFFFFFFFFFFFFFF32
:1057B000FFFFFFFF92E4A2C8A3B8DEEFFFFFFFFFE9
:1057C000FFFFFFFFFFFFFFFFFFFFFFFFFFFFFFFFE9
:1057D000FFFF82C082C082C0A2C082C0A2B8A2B8AD
:1057E00056EEFFFFFFFFFFFFFFFFFFFF82C0A2C0DB
:1057F00082C082C082C082C0A2C01CFFFFFFFFFF28
:10580000FFFFFFFFFFFFFFFFFFFFFFFF82B8A2B810
:1058100082C0A2C082C082C082C082C082C0E3C0F7
:10582000FFFFFFFFFFFF82C082C082C082C082C034
:1058300082C082C082C082C086C9FFFFFFFFFFFF17
:10584000FFFFFFFFFFFFA2C082C082C082C082C0F4
:1058500082C082C082C082C082C082C0BEFFFFFF01
:10586000A2C082C082C082C082C082C082C082C008
:1058700082C082C082C0FFF7FFFFFFFFFFFFFFFF74
:10588000FFFFA2B882C082C082C082C082C082C034
:1058900082C082C082C082C082C0FEFF82C082C03D
:1058A00082C082C082C082C082C082C082C082C0E8
:1058B00082C0A3C0FFFFFFFFFFFFFFFF67C182C0E1
:1058C00082C082C082C082C082C082C082C082C0C8
:1058D00082C082C082C0C3B882C082C082C082C07F
:1058E00082C082C082C082C082C082C082C082C0A8
:1058F000FFFFFFFFFFFFFFFFC1B082C082C082C079
:1059000082C082C082C082C082C082C082C0BFFF0B
:1059100082C0A2B882C082C082C082C082C082C05F
:1059200082C082C082C082C082C082C0FFFFFFFFEF
:10593000FFFFFFFFC2B8A2B882C082C082C082C08F
:1059400082C082C082C082C082C0FFFF82C082C08B
:1059500082C082C082C082C082C082C082C082C037
:1059600082C082C082C082C0FFFFFFFFFFFFFFFF37
:1059700075E582C082C082C082C082C082C082C0FF
:1059800082C082C0DAFDFFFF82C882C082C082C0AE
:1059900082C082C082C082C082C082C082C082C0F7
:1059A00082C082C0FFFFFFFFFFFFFFFFFFFFA2C01B
:1059B00082C082C082C082C082C082C082C082C0D7
:1059C000FFFFBFFF51D482C082C0FFFF82C082C0F0
:1059D00082C082C082C082C082C082C082C0A3C096
:1059E000FFFFFFFFFFFFFFFFFFFF07C182C082C075
:1059F00082C082C082C082C082C0A2B0FFFFC3B892
:105A0000FFFF82C0A2C0FFFF82C082C082C082C0EE
:105A100082C082C082C082C082C0FFFFFFFFFFFF42
:105A2000FFFFFFFFFFFFFFFF82C8A2B882C082C056
:105A300082C082C082C0DFFF91E4A2C0FFFFA2C08B
:105A4000FFF7FFFFDEF782C082C082C082C082C043
:105A500082C082C0BEF7FFFFFFFFFFFFFFFFFFFF17
:105A6000FFFFFFFFFFFF82C082C082C082C082C0F2
:105A700082C0FFFFA2C082C0FFFFA2C0FFFFA2B88A
:105A8000FFFF83C081C0A1C082C0A1C0A1C0DEFF52
:105A9000FFFFFFFFFFFFFFFFFFFFFFFFFFFFFFFF16
:105AA000FFFFFFFFDFFFDFFFDFFFDFFFDFFFFFFFA6
:105AB000A2C0A2C0BEFFFFEFDFFFA2B8BDF7FFFF8D
:105AC000FFFFFFFFFFFFFFFFFFFFFFFFFFFFFFFFE6
:105AD000FFFFFFFFFFFFFFFFFFFFFFFFFFFFFFFFD6
